:020000040000FA
:10000000C8030010950100009D0100009F01000041
:1000100000000000000000000000000000000000E0
:10002000000000000000000000000000A10100002E
:100030000000000000000000A3010000A501000076
:10004000A7010000A7010000A7010000A701000010
:10005000A7010000A7010000A7010000A701000000
:10006000A7010000A7010000A7010000A7010000F0
:10007000A7010000A7010000A7010000A7010000E0
:10008000A701000031060000A7010000A701000041
:10009000A701000003060000A7010000A70100005F
:1000A000A7010000A7010000A7010000A7010000B0
:1000B000A7010000A7010000D7050000E30500002C
:1000C00000F002F800F056F80CA030C808382418E8
:1000D0002D18A246671EAB4654465D46AC4201D180
:1000E00000F048F87E460F3E0FCCB646012633425C
:1000F00000D0FB1AA246AB463343184764120000F7
:1001000084120000103A02D378C878C1FAD8520796
:1001100001D330C830C101D504680C6070470000BD
:100120000023002400250026103A01D378C1FBD813
:10013000520700D330C100D50B60704710B5642959
:1001400002D100F0ABFD10BD732902D100F0C2FF57
:1001500010BD002010BD1FB5C046C04601F088F894
:1001600004000020002101F0E5F8401C60601FBD84
:1001700010B510BD01F05CF81146FFF7ECFF00F080
:10018000B3F901F08AF803B4FFF7F2FF03BC01F002
:10019000C9F800000748804707480047FEE7FEE728
:1001A000FEE7FEE7FEE7FEE704480549034A054B84
:1001B0007047000009040000C1000000C8010010E1
:1001C000C8030010C80100103E480168C907FCD0F0
:1001D0001F21016070473C48016880221143016083
:1001E000704739490A6880231A430A603549022258
:1001F0004A607D22D200CA603022504388610120CB
:100200000860032048610020486070472E4801685C
:100210008022114301602B48022141606421C160AA
:100220008900816101210160032141610021416058
:10023000704725490A6880231A430A60214902222F
:100240004A607D22D200CA6030225043886101207A
:10025000086004224A6148604868C007FCD17047C2
:10026000184902224A600022CA6030225043886145
:100270000120086004224A6148604868C007FCD138
:10028000704711490A688B151A430A600F49022208
:100290004A607D22D200CA6030225043886101202A
:1002A000086003204861002048600949580208603E
:1002B00070470649012048607047044900204860A3
:1002C0007047000000C000408080044000000140F2
:1002D00000E100E00FB41CB5074B06AA7B44694659
:1002E0000090059800F0CBFE0020694600F0DAFE91
:1002F0001CBC08BC04B01847C50D0000FFFFFFFF81
:1003000070B55A490020496AC905090F10292AD237
:100310007944097949188F4407090B0D0F111315FA
:1003200017191B1D1F21232551481CE051481AE0B5
:10033000514818E0514816E0514814E0514812E085
:10034000514810E051480EE051480CE051480AE095
:10035000514808E0514806E0514804E0514802E0A5
:10036000514800E05148414D696AC906890E891C0F
:1003700000F02EFD4E4A116B4E4C8907890F11D0AB
:10038000012904D002292BD0032935D10DE01168B1
:100390008907890F06D0012904D0022920D003291A
:1003A0002AD12FE04448206026E011688907890F90
:1003B00006D001290AD0022914D003291CD121E03A
:1003C000A868C005800F05D03B4809E0A868C005B3
:1003D000800FF9D1A8683849C006C00E401C4843B8
:1003E000206009E0A968C905890FF9D1A968C90683
:1003F000C90E491C41432160916B206800F0E8FC64
:10040000206070BD0020EBE7F0B42C4A906B2021F7
:1004100088439063154900230B62184600BF401CB7
:10042000C828FBD32248036001254560436045602E
:100430004468E407FCD023248C60946B8026B4438A
:100440009463CA68D207FCD0032101634563436308
:100450004563416BC907FCD085631A4818490160A0
:1004600045618561C561F0BC4AE700000080044039
:10047000801A060020A1070000350C00E0C810001B
:10048000C05C1500006A180040771B0080841E00C5
:10049000C0912100009F240040AC2700E0322900D9
:1004A00020402C00604D2F0000D4300040E133008C
:1004B0004080044000000010001BB7000082044090
:1004C0005F0001008080044010B5FFF79DFF00F041
:1004D0002BF900F035FA7D20C000FFF7D2FE4B204B
:1004E000000100F0C4F910BD84B0FFF78DFF00F0EB
:1004F0001BF900F025FA7D20C000FFF7C2FE4B205B
:10050000000100F0B4F97448012705467F027035F8
:100510006630724C002602906420FFF78AFE207835
:100520000028F9D06E4801782A2909D000F00EFC85
:10053000C1B26B4800F00AFA00282EDD01202DE040
:10054000401C00F03CFB0028E6D0654800F0FEFBB4
:10055000C1B2634800F01CFBC0B26070012802D039
:1005600000280CD00FE05F49C86BB843C863FFF7A1
:10057000A4FE5D485D490670C86BB84302E0594966
:10058000C86B3843C86300F0A6F96421544800F0F2
:100590001BFC267000F0A6F9BEE700200028BBD0A7
:1005A0004F4800F0D3FB01464D4800F0AFF96421FD
:1005B0004F4800F009FC0196009501224DA14C48DE
:1005C000029BFFF787FE4A4800F0C0FB01464848FF
:1005D00000F09CF9D7E74E48816981694D49C161B6
:1005E000704770B54C4DA869C00507D53B4CE07805
:1005F000401CE070FFF75DFE0020A0704548E861F8
:1006000070BD464A90680007400F02280FD150691C
:10061000C0070CD0324B314910B4146808781C5410
:10062000401C08705069C007F7D110BC7047704774
:10063000F0B53B4883B00068C00748D0274C01277D
:10064000A0782A4E401CA070E0787F0200250F2879
:1006500015D9F06B3843F0636421254800F0B4FBF2
:1006600000950023012223A121480195FFF732FEC6
:100670001F4800F06BFB01461D4800F047F9A078C9
:10068000052819D964211A4800F09EFB0023009523
:100690001A4618A116480195FFF71CFE144800F0F1
:1006A00055FB0146124800F031F90F480570F06B18
:1006B000B843F063FFF701FE0A48C16B8022514046
:1006C000C1631848C16B01225140C163E5701448F1
:1006D0001F21016003B0F0BDD40000100400001021
:1006E0000C000010C03F005008000010C03F015037
:1006F000700000102A52494E473A25643A43494453
:100700003A257325733A484F4F4B3A25642A000027
:1007100000800150FF0F000000800050008000406A
:1007200000000140C03F0250F0B43C480068012581
:100730002D043A4928430860394AD020906339494A
:10074000D1238B63CB63384C23604B635061C86209
:10075000A0610862486208610021116390602F481F
:1007600000682E49A84308603048016801221143FF
:100770000160016802239943016001680424A143D8
:100780000160016857023943016001689202914398
:100790000160016852009143016025490D6895434D
:1007A0000D600E68D510AE430E600E683E430E60BD
:1007B0000E6880273E430E601E4E366801273E437A
:1007C0001C4F3E604E6896434E60CE689643CE60A6
:1007D0000E6916430E614A68AA434A60CA68AA4372
:1007E000CA600A692A430A614168A1434160C1683D
:1007F000A143C1600169214301614168994341609E
:10080000C1681943C1600169194301610A48590768
:100810000160C1050160F0BC7047000080800440A9
:1008200000400440404004408040044000800150AB
:10083000008000500080025000E100E0F8B5394E21
:10084000012000247060FFF7BFFC374F0725F86BCD
:100850006408000501D580200443FFF7B5FC284655
:100860006D1EEDB20028F2D170602046F8BD70B563
:100870002E4B1A68012109040A431A602C4A546A53
:10088000E408E4005462546A01252C435462946ADB
:10089000E408E4009462946A2C4394621A688A43E0
:1008A0001A609D6119682A0311431960214C832144
:1008B000E1600146204800F08BFA010A6160C0B295
:1008C00020600320E0600720A060606965601B492C
:1008D000A001086070BD17480321816041690021B3
:1008E00041607047134803218160416901214160E3
:1008F000704710484169C907FCD00068C0B2704712
:100900000C494A699206FCD508607047002908D056
:10091000084A53699B06FCD503781360401C491EA6
:10092000F7D1704700C00040C03F005080800440B5
:100930008040044000800040C0C62D0000E100E07F
:1009400010B59021784800F03FFA10BDF3B50C4681
:1009500081B0002501279021734800F035FA724AD2
:10096000002016466036002C0ED901993379095CB7
:10097000D1543179642901D2491C00E00021401C86
:10098000C0B23171A042F0D33079002400287ED962
:1009900066480090012F06D0022F27D0032F36D0B3
:1009A000042F7AD093E06048005D802810D004289E
:1009B00015D055286DD011215DA0FFF7A7FF009934
:1009C0000020C8735F4930710870401E03B0F0BD4D
:1009D00014215DA0FFF79AFF2546022777E0132137
:1009E0005FA0FFF793FF2546032770E04E4832795A
:1009F00040194178A81C09188A4210D32846814220
:100A000003D9401CC0B28142FBD804275FE0464BAB
:100A1000307959194C78AA1CA218904206D2142198
:100A200054A0FFF773FF002003B0F0BD28468242B8
:100A300003D9401CC0B28242FBD800202A181C18DF
:100A4000D2186034401C9278C0B2A2710828F5D345
:100A50004A780820082A0AD92A181C18D21892782D
:100A600060342272401C4A78C0B28242F4D8D0B2BC
:100A70000099083888734548C26B012149028A43AE
:100A8000C26300980121C1732E48017002E024E086
:100A900003E01CE00020307142E02348005D0128A3
:100AA00011D1214A00201319597800290FD91E4964
:100AB000221852180918927860318A71401C5A78AD
:100AC000C0B28242F3D81848005D022808D0641CE6
:100AD0003079E4B2A04200D95CE7002003B0F0BD59
:100AE000114A002011194B78002B0AD92318151828
:100AF0009B189B7860352B74401C4B78C0B28342A6
:100B0000F4D80098214A8373D06B012149028843AD
:100B1000D0630020307100990120C8730949087022
:100B2000012003B0F0BD0000D400001054010010FB
:100B30006D6573736167652069736E2774206673D2
:100B40006B000000080000106D657373616765201D
:100B5000434F4D504C45585F4D4F444500000000F9
:100B60006D6573736167652053494E474C455F4D12
:100B70004F4445006D657373616765206E6F742027
:100B8000636F6D706C65746500000000C03F0150BC
:100B900070B50025ED4300290FD00DA100F0C1F87C
:100BA00000280AD0441D204600F0AEF8002805D0E9
:100BB000204600F0A9F8012800D0284670BD10B5E5
:100BC00005A100F0AEF8002800D0012010BD000003
:100BD000484F4F4B3A0000002A000000F8B5044689
:100BE0000E4600202DE0E1682046884700282AD0E4
:100BF000252802D06268A16820E0E168204600272D
:100C0000884705001FD028464138192802D80127F7
:100C1000FF0220353246204627602946FFF78EFA2C
:100C2000002808D0012804D0F61DF608F600083682
:100C3000D9E7361DD7E762682846A1689047206A41
:100C4000401C2062CFE7206AF8BD70B505460C460F
:100C5000012A05D02868800600D5EA69002302E051
:100C6000012305E05B1C934202D2E05C0028F9D12D
:100C7000A869E618C01AA861286AC0182862284620
:100C8000C046C04604E06A682078A968641C9047A2
:100C9000B442F8D32846C046C04670BDF7B500261A
:100CA00075291068009914A511D0C046C0460028C7
:100CB00002DA404211A508E0009909688A0701D5C7
:100CC0000FA502E0490704D50EA5012601E0C046A4
:100CD000C046009F0024243704E000F037FA30318A
:100CE0003955641C0028F8D133462A46214600981D
:100CF00000F06AF9FEBD0000000000002D000000B9
:100D00002B0000002000000070B5064600F058F9E6
:100D10000468054630460A22002100F0DFF92C6005
:100D200070BD30B505460B462A461C781078521C1B
:100D30005B1C002801D0A042F7D0002C03D0002873
:100D400002D06D1CEFE7284630BD000030B5441CD2
:100D500003E00178401C00290DD08107F9D10B4B2D
:100D6000DD0104C8D11A91432940FAD0001B0A06BC
:100D700003D0C01E30BD001B30BD0A0401D0801E50
:100D800030BD0902FCD0401E30BD00000101010150
:100D900001E004C0091F0429FBD28B0701D50280A2
:100DA000801CC90700D00270704700290BD0C30710
:100DB00002D00270401C491E022904D3830702D5C9
:100DC0000280801C891EE3E70022EEE70022DFE7B5
:100DD000002203098B4273D3030A8B4258D3030BBF
:100DE0008B423CD3030C8B4221D312E003460B43CE
:100DF0007FD4002243088B4274D303098B425FD314
:100E0000030A8B4244D3030B8B4228D3030C8B423F
:100E10000DD3FF22090212BA030C8B4202D3121225
:100E2000090265D0030B8B4219D300E0090AC30BFA
:100E30008B4201D3CB03C01A5241830B8B4201D3A7
:100E40008B03C01A5241430B8B4201D34B03C01A90
:100E50005241030B8B4201D30B03C01A5241C30A08
:100E60008B4201D3CB02C01A5241830A8B4201D379
:100E70008B02C01A5241430A8B4201D34B02C01A63
:100E80005241030A8B4201D30B02C01A5241CDD208
:100E9000C3098B4201D3CB01C01A524183098B4253
:100EA00001D38B01C01A524143098B4201D34B013C
:100EB000C01A524103098B4201D30B01C01A52419F
:100EC000C3088B4201D3CB00C01A524183088B4226
:100ED00001D38B00C01A524143088B4201D34B000F
:100EE000C01A5241411A00D2014652411046704781
:100EF0005DE0CA0F00D04942031000D34042534086
:100F000000229C4603098B422DD3030A8B4212D345
:100F1000FC22890112BA030A8B420CD38901921177
:100F20008B4208D3890192118B4204D389013AD0B4
:100F3000921100E08909C3098B4201D3CB01C01A89
:100F4000524183098B4201D38B01C01A524143099C
:100F50008B4201D34B01C01A524103098B4201D38A
:100F60000B01C01A5241C3088B4201D3CB00C01AF7
:100F7000524183088B4201D38B00C01A5241D9D20F
:100F800043088B4201D34B00C01A5241411A00D290
:100F90000146634652415B10104601D34042002B8C
:100FA00000D54942704763465B1000D3404201B50B
:100FB0000020C046C04602BD704770477047000021
:100FC0000048704764010010FFB504460D4681B02B
:100FD000243000902168880604D51022E0699143EE
:100FE000216000E001200027A84200DD471B049893
:100FF000A1697A191018081AA0612068C00602D4E5
:101000002046C046C046002608E003986268A168F2
:10101000805D9047206A401C761C206204988642BE
:10102000F3DB2068C0060AD52046C046C04606E06D
:101030006268A16830209047206A401C20623846D0
:101040007F1E0028F4DC07E000986268A168405D1C
:101050009047206A401C206228466D1E0028F3DC61
:101060002046C046C04621680220090600D401205F
:1010700005B0F0BD01694A1C02610878704700B5EF
:101080008FB00291002105910549019379440391A4
:10109000114604906846FFF7A1FD0FB000BD0000A7
:1010A000E5FFFFFF0A681070521C0A60704710B518
:1010B0004369002B02D0C046C04601E0FFF7C5FDE2
:1010C000012010BD1268014624310A7000224A70C6
:1010D0000122ECE711680022D243E8E7F7B50F469A
:1010E0000026009C2578641C002D05D000F046F8F1
:1010F0000068405DC007F5D12B2D02D02D2D18D0F2
:10110000641E3946029A204600F040F8002F04D0B1
:101110003968A14201D10099396071050224002982
:101120000BDA4042002803DDFFF74AFF0460A00706
:10113000FEBD012080020643E3E70028F8DAFFF74E
:101140003FFF04600048FEBDFFFFFF7F01468008AF
:10115000081A02091018020A1018020C1018C00808
:10116000820012185200891A01E00A39401C0A292B
:10117000FBD27047004870476401001010B500F0C2
:1011800077F8001D10BD00BFAD010000F7B5154692
:1011900082B00027029C2078641C0197302802D07E
:1011A000002D15D015E020780127641C782804D084
:1011B000582802D0002D09D00BE0002D01D0102DB1
:1011C00007D1207800271025641C02E0082500E0E4
:1011D0000A250026009610E00099012769430818A7
:1011E00029467143020C80B200908E183804864262
:1011F00001D3012001902078641C294600F03CF8BE
:101200000028E9DA0398002804D0641E002F00D1DA
:10121000029C04600198002806D0FFF7D1FE02214D
:101220000160C81E05B0F0BD009930040843F9E71D
:101230007546FFF79FFFAE46050069465346C00856
:10124000C000854618B020B5FEF7AEFF60BC002791
:101250004908B6460026C0C5C0C5C0C5C0C5C0C582
:10126000C0C5C0C5C0C5403D49008D46704700009F
:1012700000487047840100103A2800D230382023FB
:1012800002469A43412A01D3104637380022D243FE
:10129000884200D20246104670470446C046C04607
:1012A0002046FEF770FF0000024670B50A43920721
:1012B00024D11B4DEE0104C808C9541B944334408B
:1012C00017D0D0B2D9B2401A2106014310D190B242
:1012D00099B2401A210401430AD110021902000AEE
:1012E000090A401A2102014302D1100E190E401AB8
:1012F00070BD9A42DFD010BA19BAF8E702780B78BD
:10130000401C491C002A09D09A4207D102780B7868
:10131000401C491C002A01D09A42EFD0D01A70BD5F
:101320000101010101491820ABBEFEE726000200C1
:101330007047000010B500290AD00878002807D0AF
:1013400005487844FFF7B0FF002801D0002010BD09
:101350000248784410BD00003E0000003600000046
:1013600090140000000000100C00000004010000B8
:101370009C1400000C000010BC03000020010000C1
:101380001001000043000000F8FFFFFF0040404054
:101390004040404040404141414141404040404048
:1013A00040404040404040404040404040050202F4
:1013B00002020202020202020202020202202020B3
:1013C000202020202020200202020202020290900F
:1013D000909090901010101010101010101010100D
:1013E0001010101010101010020202020202888861
:1013F000888888880808080808080808080808086D
:101400000808080808080808020202024000000054
:1014100000000000000000000000000000000000CC
:1014200000000000000000000000000000000000BC
:1014300000000000000000000000000000000000AC
:10144000000000000000000000000000000000009C
:10145000000000000000000000000000000000008C
:10146000000000000000000000000000000000007C
:10147000000000000000000000000000000000006C
:10148000000000000000000000000000000000005C
:0C149000006CDC02000000000000000006
:04000005000000C136
:00000001FF
