:020000040000FA
:1000000000070010950100009D0100009F01000005
:1000100000000000000000000000000000000000E0
:10002000000000000000000000000000A10100002E
:100030000000000000000000A3010000A501000076
:10004000A7010000A7010000A7010000A701000010
:10005000A7010000A7010000A7010000A701000000
:10006000A7010000A7010000A7010000A7010000F0
:10007000A7010000A7010000A7010000A7010000E0
:10008000A70100003D060000A7010000A701000035
:10009000A70100000D060000A7010000A701000055
:1000A000A7010000A7010000A7010000A7010000B0
:1000B000A7010000A7010000E1050000ED05000018
:1000C00000F002F800F056F80CA030C808382418E8
:1000D0002D18A246671EAB4654465D46AC4201D180
:1000E00000F048F87E460F3E0FCCB646012633425C
:1000F00000D0FB1AA246AB463343184768120000F3
:1001000088120000103A02D378C878C1FAD8520792
:1001100001D330C830C101D504680C6070470000BD
:100120000023002400250026103A01D378C1FBD813
:10013000520700D330C100D50B60704710B5642959
:1001400002D100F09BFD10BD732902D100F0B4FF75
:1001500010BD002010BD1FB5C046C04601F07AF8A2
:1001600004000020002101F0E7F8401C60601FBD82
:1001700010B510BD01F04FF81146FFF7ECFF00F08D
:10018000B3F901F07AF803B4FFF7F2FF03BC01F012
:10019000CBF800000748804707480047FEE7FEE726
:1001A000FEE7FEE7FEE7FEE704480549034A054B84
:1001B000704700000B040000C100000000050010A3
:1001C00000070010000500103E480168C907FCD078
:1001D0001F21016070473C48016880221143016083
:1001E000704739490A6880231A430A603549022258
:1001F0004A607D22D200CA603022504388610120CB
:100200000860032048610020486070472E4801685C
:100210008022114301602B48022141606421C160AA
:100220008900816101210160032141610021416058
:10023000704725490A6880231A430A60214902222F
:100240004A607D22D200CA6030225043886101207A
:10025000086004224A6148604868C007FCD17047C2
:10026000184902224A600022CA6030225043886145
:100270000120086004224A6148604868C007FCD138
:10028000704711490A688B151A430A600F49022208
:100290004A607D22D200CA6030225043886101202A
:1002A000086003204861002048600949580208603E
:1002B00070470649012048607047044900204860A3
:1002C0007047000000C000408080044000000140F2
:1002D00000E100E00FB41CB5074B06AA7B44694659
:1002E0000090059800F0BDFE0020694600F0CCFEAD
:1002F0001CBC08BC04B01847A90D0000FFFFFFFF9D
:1003000070B55A490020496AC905090F10292BD236
:100310000A007A4412799218974407090B0D0F11BD
:10032000131517191B1D1F21232551481CE0514887
:100330001AE0514818E0514816E0514814E051487D
:1003400012E0514810E051480EE051480CE051488D
:100350000AE0514808E0514806E0514804E051489D
:1003600002E0514800E05148404D696AC906890ED3
:10037000891C00F01DFD4E4A116B4E4C8907890FF8
:1003800011D0012904D002292BD0032935D10DE049
:1003900011688907890F06D0012904D0022920D0CD
:1003A00003292AD12FE04448206026E011688907FC
:1003B000890F06D001290AD0022914D003291CD1A3
:1003C00021E0A868C005800F05D03B4809E0A86877
:1003D000C005800FF9D1A8683749C006C00E401C7F
:1003E0004843206009E0A968C905890FF9D1A968C7
:1003F000C906C90E491C41432160916B206800F079
:10040000D7FC206070BD0020EBE7F0B42B4A906B66
:10041000202188439063154900230B62184600BFD2
:10042000401CC828FBD32248036001254560436077
:1004300045604468E407FCD023248C60946B8026DC
:10044000B4439463CA68D207FCD0032101634563B7
:1004500043634563416BC907FCD08563194818495C
:10046000016045618561C561F0BC49E700800440D9
:10047000801A060020A1070000350C00E0C810001B
:10048000C05C1500006A180040771B0080841E00C5
:10049000C0912100009F240040AC2700E0322900D9
:1004A00020402C00604D2F0000D4300040E133008C
:1004B0004080044000000010001BB7000082044090
:1004C0005F0001008080044010B5FFF79EFF00F040
:1004D0002FF900F039FA7D20C000FFF7D2FE4B2043
:1004E000000100F0C8F910BD84B0FFF78EFF00F0E6
:1004F0001FF900F029FA7D20C000FFF7C2FE4B2053
:10050000000100F0B8F983217148890045180127DE
:10051000FF3000267F02FF306C4C043002906420D4
:10052000FFF787FE60680028F9DD6A4801782A290C
:1005300009D000F0FBFBC1B2664800F00CFA0028BD
:100540002DDD01202CE0401C00F029FB0028E6D026
:10055000604800F0EBFBC1B25E4800F009FBC0B29E
:100560002070012802D000280DD010E05A49C86B35
:10057000B843C863FFF7A1FE584859490670C86BD5
:10058000B843C86303E05448C16B3943C16300F00A
:10059000A6F939464F4800F007FC66601DE00020D0
:1005A0000028BCD064214F4800F0FEFB0196009566
:1005B00001224DA14B48029BFFF78CFE494800F0F9
:1005C000B5FB0146474800F0A5F900F088F9394627
:1005D000404800F0E9FB6660E67000F087F99EE7AE
:1005E0004848816981694849C161704770B5474D84
:1005F000A869C00507D5354CA078401CA070FFF74E
:1006000058FE002060704048E86170BD404988682D
:100610000007400F022810D108682C4AC1B25529A2
:1006200001D10120D0705068C82806DAD378012B98
:1006300003D1284B1954401C50607047F0B5354821
:1006400083B00068C0073CD0204C01266078244D60
:10065000401C6070A07876020A2813D9E86B3043FA
:10066000E86364211F4800F09FFB002301222AA1B8
:100670001C48FFF72FFE1B4800F058FB01461948A5
:1006800000F048F960780027052819D96421154839
:1006900000F08AFB002300971A4613A11148019726
:1006A000FFF718FE0F4800F041FB01460D4800F02F
:1006B00031F90A480770E86BB043E863FFF7FDFDC6
:1006C000A77014481F21016003B0F0BD04000010A2
:1006D0007402001010000010C03F00500C00001009
:1006E000C03F0150100200102A52494E473A25647B
:1006F0003A4349443A257325733A484F4F4B3A25BC
:10070000642A000000800150FF0F000000800050AC
:1007100000800040000001402A52494E473A2564BB
:100720003A4349443A3A484F4F4B3A25642A00002D
:10073000F0B43C48006801252D043A49284308607C
:10074000394AD02090633949D1238B63CB63384C2D
:1007500023604B635061C862A0610862486208610F
:100760000021116390602F4800682E49A84308605B
:100770003048016801221143016001680223994356
:10078000016001680424A1430160016857023943F4
:100790000160016892029143016001685200914337
:1007A000016025490D6895430D600E68D510AE4374
:1007B0000E600E683E430E600E6880273E430E605A
:1007C0001E4E366801273E431C4F3E604E689643DE
:1007D0004E60CE689643CE600E6916430E614A683D
:1007E000AA434A60CA68AA43CA600A692A430A61DE
:1007F0004168A1434160C168A143C16001692143CF
:100800000161416899434160C1681943C160016950
:10081000194301610A4859070160C1050160F0BC34
:100820007047000080800440004004404040044085
:100830008040044000800150008000500080025041
:1008400000E100E0F8B5394E012000247060FFF7A8
:10085000BBFC374F0725F86B6408000501D58020E5
:100860000443FFF7B1FC28466D1EEDB20028F2D11B
:1008700070602046F8BD70B52E4B1A68012109043E
:100880000A431A602C4A546AE408E4005462546A29
:1008900001252C435462946AE408E4009462946A4B
:1008A0002C4394621A688A431A609D6119682A036E
:1008B00011431960214C8321E1600146204800F07A
:1008C00077FA010A6160C0B220600320E06007206F
:1008D000A060606965601B49A001086070BD174891
:1008E0000321816041690021416070471348032161
:1008F0008160416901214160704710484169C90721
:10090000FCD00068C0B270470C494A699206FCD519
:1009100008607047002908D0084A53699B06FCD537
:1009200003781360401C491EF7D1704700C0004097
:10093000C03F005080800440804004400080004060
:10094000C0C62D0000E100E010B58B21890073487E
:1009500000F02AFA10BDF3B50C468B2181B00025BA
:10096000012789006D4800F01FFA6C4A0020D61D4F
:10097000FF36FA36002C0AD901993378095CD15434
:100980003178401C491CC0B23170A042F4D3307899
:100990000024002876D962480090012F06D0022F4B
:1009A00019D0032F28D0042F6ED089E05B48005D5A
:1009B000802802D0042807D082E0142159A0FFF734
:1009C000A9FF254602277BE013215CA0FFF7A2FFC9
:1009D0002546032774E05148327840194178A81C15
:1009E00009188A4210D32846814203D9401CC0B25C
:1009F0008142FBD8042763E0484B307859194C7882
:100A0000AA1CA218904206D2142151A0FFF782FF1F
:100A1000002003B0F0BD2846824203D9401CC0B27A
:100A20008242FBD800201C182A18FF34D218FF3449
:100A30000234401C9278C0B2A2700828F3D34A78DE
:100A40000820082A0CD91C182A18FF34D218FF34A1
:100A5000927802342271401C4A78C0B28242F2D8A5
:100A6000D0B20099083888723F48C16B0122520207
:100A70009143C16300990120C8723C49087000206D
:100A8000307048E022E0FFE72448005D012813D1E0
:100A9000224900200A195378002B11D91F49231825
:100AA0005B180918FF31FF319B7802318B70401CB5
:100AB0005178C0B28142F1D81848005D022808D0B0
:100AC000641C3078E4B2A04200D966E7002003B08D
:100AD000F0BD124A002011194B78002B0CD91518C3
:100AE0002318FF359B18FF359B7802352B73401C6C
:100AF0004B78C0B28342F2D800981B498372C86B0E
:100B0000012252029043C8630020307000990120F6
:100B1000C87216490870012003B0F0BD74020010BD
:100B2000940400106D65737361676520434F4D50E9
:100B30004C45585F4D4F4445000000006D65737390
:100B40006167652053494E474C455F4D4F44450012
:100B50006D657373616765206E6F7420636F6D7070
:100B60006C65746500000000C03F01500C0000106F
:100B700070B50025ED4300290FD00DA100F0C1F89C
:100B800000280AD0441D204600F0AEF8002805D009
:100B9000204600F0A9F8012800D0284670BD10B505
:100BA00005A100F0AEF8002800D0012010BD000023
:100BB000484F4F4B3A0000002A000000F8B50E469F
:100BC0000446002020622046E1688847002829D09A
:100BD000252802D06268A16820E0E168204600274D
:100BE000884705001ED028464138192802D8012719
:100BF000FF0220353246204627602946FFF79EFA3D
:100C0000002808D0012804D0F61DF608F6000836A2
:100C1000D9E7361DD7E762682846A1689047206A61
:100C2000401CCFE7206AF8BD70B50C460546012A86
:100C300005D02878800600D5EA69002302E0012368
:100C400005E05B1C934202D2E05C0028F9D1A86960
:100C5000E618C01AA861286AC01828622846C0464B
:100C6000C04604E06A682078A968641C9047B442D2
:100C7000F8D32846C046C04670BD0000F7B5002531
:100C800075291068009914A611D0C046C0460028E6
:100C900002DA404211A608E0009909688A0701D5E6
:100CA0000FA602E0490704D50EA6012501E0C046C3
:100CB000C046009F0024243704E000F039FA3031A8
:100CC0003955641C0028F8D12B463246214600983D
:100CD00000F06AF9FEBD0000000000002D000000D9
:100CE0002B0000002000000070B5064600F058F907
:100CF0000468054630460A22002100F0E1F92C6024
:100D000070BD30B505460B462A461C781078521C3B
:100D10005B1C002801D0A042F7D0002C03D0002893
:100D200002D06D1CEFE7284630BD000030B5441CF2
:100D300003E00178401C00290DD08107F9D10B4B4D
:100D4000DD0104C8D11A91432940FAD0001B0A06DC
:100D500003D0C01E30BD001B30BD0A0401D0801E70
:100D600030BD0902FCD0401E30BD00000101010170
:100D700001E004C0091F0429FBD28B0701D50280C2
:100D8000801CC90700D00270704700290BD0C30730
:100D900002D00270401C491E022904D3830702D5E9
:100DA0000280801C891EE3E70022EEE70022DFE7D5
:100DB000002203098B4273D3030A8B4258D3030BDF
:100DC0008B423CD3030C8B4221D312E003460B43EE
:100DD0007FD4002243088B4274D303098B425FD334
:100DE000030A8B4244D3030B8B4228D3030C8B4260
:100DF0000DD3FF22090212BA030C8B4202D3121246
:100E0000090265D0030B8B4219D300E0090AC30B1A
:100E10008B4201D3CB03C01A5241830B8B4201D3C7
:100E20008B03C01A5241430B8B4201D34B03C01AB0
:100E30005241030B8B4201D30B03C01A5241C30A28
:100E40008B4201D3CB02C01A5241830A8B4201D399
:100E50008B02C01A5241430A8B4201D34B02C01A83
:100E60005241030A8B4201D30B02C01A5241CDD228
:100E7000C3098B4201D3CB01C01A524183098B4273
:100E800001D38B01C01A524143098B4201D34B015C
:100E9000C01A524103098B4201D30B01C01A5241BF
:100EA000C3088B4201D3CB00C01A524183088B4246
:100EB00001D38B00C01A524143088B4201D34B002F
:100EC000C01A5241411A00D20146524110467047A1
:100ED0005DE0CA0F00D04942031000D340425340A6
:100EE00000229C4603098B422DD3030A8B4212D366
:100EF000FC22890112BA030A8B420CD38901921198
:100F00008B4208D3890192118B4204D389013AD0D4
:100F1000921100E08909C3098B4201D3CB01C01AA9
:100F2000524183098B4201D38B01C01A52414309BC
:100F30008B4201D34B01C01A524103098B4201D3AA
:100F40000B01C01A5241C3088B4201D3CB00C01A17
:100F5000524183088B4201D38B00C01A5241D9D22F
:100F600043088B4201D34B00C01A5241411A00D2B0
:100F70000146634652415B10104601D34042002BAC
:100F800000D54942704763465B1000D3404201B52B
:100F90000020C046C04602BD704770477047000041
:100FA00000487047A0040010FFB504460D4681B00C
:100FB000243000902168880604D51022E06991430E
:100FC000216000E00120A84201DD471B00E000276E
:100FD0000498A1697A191018081AA0612078C0062F
:100FE00002D42046C046C046002608E00398626846
:100FF000A168805D9047206A401C761C206204989E
:101000008642F3DB2078C0060AD52046C046C0469B
:1010100006E06268A16830209047206A401C206288
:1010200038467F1E0028F4DC07E000986268A1685B
:10103000405D9047206A401C206228466D1E0028B3
:10104000F3DC2046C046C0462078000602D50220C8
:1010500005B0F0BD0120FBE701694A1C0261087878
:10106000704700B58FB002910021059105490193A9
:1010700079440391114604906846FFF79FFD0FB035
:1010800000BD0000E5FFFFFF0A681070521C0A60F7
:10109000704710B54369002B02D0C046C04601E03E
:1010A000FFF7C2FD012010BD1278014624310A70FD
:1010B00000224A700122ECE711680022D243E8E7DF
:1010C000F7B50F460026009C2578641C002D05D03E
:1010D00000F046F80068405DC007F5D12B2D02D026
:1010E0002D2D18D0641E3946029A204600F040F893
:1010F000002F04D03968A14201D1009939607105EF
:10110000022400290BDA4042002803DDFFF748FFE4
:101110000460A007FEBD012080020643E3E700282B
:10112000F8DAFFF73DFF04600048FEBDFFFFFF7FD8
:1011300001468008081A02091018020A1018020C49
:101140001018C008820012185200891A01E0401CD1
:101150000A390A29FBD2704700487047A0040010E2
:1011600010B500F077F8001D10BD00BFCD010000E4
:10117000F7B5154682B00027029C2078641C0197C1
:10118000302802D0002D15D015E020780127641CEE
:10119000782804D0582802D0002D09D00BE0002D6B
:1011A00001D0102D07D1207800271025641C02E003
:1011B000082500E00A250026009610E00099012786
:1011C0006943081829467143020C80B200908E18BA
:1011D0003804864201D3012001902078641C2946FE
:1011E00000F03CF80028E9DA0398002805D0002F29
:1011F00001D0641E00E0029C04600198002806D023
:10120000FFF7CEFE02210160C81E05B0F0BD0099B7
:1012100030040843F9E77546FFF79EFFAE46050028
:1012200069465346C008C000854618B020B5FEF791
:10123000BBFF60BC00274908B6460026C0C5C0C534
:10124000C0C5C0C5C0C5C0C5C0C5C0C5403D4900BA
:101250008D46704700487047C00400103A2800D2FD
:101260003038202302469A43412A01D310463738AA
:10127000884201D30020C04370470446C046C046A0
:101280002046FEF780FF000082078B079A4237D185
:1012900070B5920F0AD0032402780B78401C491CC9
:1012A000002A2BD09A4229D12042F5D11D4EF401BB
:1012B00004C808C9951B9543254010D19A4207D10F
:1012C00004C808C9951B9543254008D19A42EFD020
:1012D00012BA1BBA01209A4200D2404270BD12BA23
:1012E0001BBA2DBA18241000E0401900E140401A42
:1012F00005D12E00E64002D1083CF4D1D01A70BDD1
:1013000002780B78401C491C002A09D09A4207D168
:1013100002780B78401C491C002A01D09A42EFD079
:10132000D01A70470101010101491820ABBEFEE748
:10133000260002007047000010B500290AD0087886
:10134000002807D005487844FFF79EFF002801D009
:10135000002010BD0248784410BD00003E0000008F
:10136000360000009414000000000010100000007F
:1013700004010000A414000010000010F00600009A
:10138000200100001001000043000000F8FFFFFFF3
:101390000040404040404040404041414141414088
:1013A000404040404040404040404040404040403D
:1013B00040050202020202020202020202020202CC
:1013C00002202020202020202020200202020202D1
:1013D0000202909090909090101010101010101029
:1013E0001010101010101010101010100202020235
:1013F0000202888888888888080808080808080879
:101400000808080808080808080808080202020274
:10141000400000000000000000000000000000008C
:1014200000000000000000000000000000000000BC
:1014300000000000000000000000000000000000AC
:10144000000000000000000000000000000000009C
:10145000000000000000000000000000000000008C
:10146000000000000000000000000000000000007C
:10147000000000000000000000000000000000006C
:10148000000000000000000000000000000000005C
:1014900000000000006CDC02000000000000000002
:0414A0000000000048
:04000005000000C136
:00000001FF
