:020000040000FA
:10000000C0030010950100009D0100009F01000049
:1000100000000000000000000000000000000000E0
:10002000000000000000000000000000A10100002E
:100030000000000000000000A3010000A501000076
:10004000A7010000A7010000A7010000A701000010
:10005000A7010000A7010000A7010000A701000000
:10006000A7010000A7010000A7010000A7010000F0
:10007000A7010000A7010000A7010000A7010000E0
:10008000A7010000A7050000A7010000A7010000CC
:10009000A701000071050000A7010000A7010000F2
:1000A000A7010000670C0000A7010000A7010000E5
:1000B000A7010000A7010000A701000051050000F2
:1000C00000F002F800F056F80CA030C808382418E8
:1000D0002D18A246671EAB4654465D46AC4201D180
:1000E00000F048F87E460F3E0FCCB646012633425C
:1000F00000D0FB1AA246AB46334318473413000026
:1001000054130000103A02D378C878C1FAD85207C5
:1001100001D330C830C101D504680C6070470000BD
:100120000023002400250026103A01D378C1FBD813
:10013000520700D330C100D50B60704710B5642959
:1001400002D100F015FE10BD732902D101F02CF888
:1001500010BD002010BD1FB5C046C04601F0F2F82A
:1001600004000020002101F04DF9401C60601FBD1B
:1001700010B510BD01F0C6F81146FFF7ECFF00F016
:10018000B5F901F0F4F803B4FFF7F2FF03BC01F096
:1001900033F900000748804707480047FEE7FEE7BD
:1001A000FEE7FEE7FEE7FEE704480549034A054B84
:1001B0007047000009040000C1000000C0010010E9
:1001C000C0030010C00100103C480168C907FCD002
:1001D0001F21016070473A48016880221143016085
:1001E000704737490A6880231A430A60334902225C
:1001F0004A607D22D200CA603022504388610120CB
:100200000860032048610020486070472C4801685E
:100210008022114301602948022141606421C160AC
:100220008900816101210160032141610021416058
:100230007047234A11688023194311601F49022225
:100240004A60C8601F4888610120086004224A6132
:1002500048604868C007FCD17047184902224A60CC
:100260000022CA60302250438861012008600422C5
:100270004A6148604868C007FCD1704710490A6865
:100280008B151A430A60104902224A607D22D2006F
:10029000CA60302250438861012008600320486111
:1002A000002048600949580208607047064901204B
:1002B00048607047044900204860704700C0004013
:1002C0008080044080BB00000000014000E100E0AD
:1002D0000FB41CB5074B06AA7B44694600900598ED
:1002E00000F037FF0020694600F046FF1CBC08BC48
:1002F00004B018479D0E000070470000FFFFFFFF8D
:1003000070B55A490020496AC905090F10292AD237
:100310007944097949188F4407090B0D0F111315FA
:1003200017191B1D1F21232551481CE051481AE0B5
:10033000514818E0514816E0514814E0514812E085
:10034000514810E051480EE051480CE051480AE095
:10035000514808E0514806E0514804E0514802E0A5
:10036000514800E05148414D696AC906890E891C0F
:1003700000F098FD4E4A116B4E4C8907890F11D041
:10038000012904D002292BD0032935D10DE01168B1
:100390008907890F06D0012904D0022920D003291A
:1003A0002AD12FE04448206026E011688907890F90
:1003B00006D001290AD0022914D003291CD121E03A
:1003C000A868C005800F05D03B4809E0A868C005B3
:1003D000800FF9D1A8683849C006C00E401C4843B8
:1003E000206009E0A968C905890FF9D1A968C90683
:1003F000C90E491C41432160916B206800F052FDF9
:10040000206070BD0020EBE7F0B42C4A906B2021F7
:1004100088439063154900230B62184600BF401CB7
:10042000C828FBD32248036001254560436045602E
:100430004468E407FCD023248C60946B8026B4438A
:100440009463CA68D207FCD0032101634563436308
:100450004563416BC907FCD085631A4818490160A0
:1004600045618561C561F0BC4AE700000080044039
:10047000801A060020A1070000350C00E0C810001B
:10048000C05C1500006A180040771B0080841E00C5
:10049000C0912100009F240040AC2700E0322900D9
:1004A00020402C00604D2F0000D4300040E133008C
:1004B0004080044000000010001BB7000082044090
:1004C0005F0001008080044010B5FFF79DFF00F041
:1004D000CDF800F0B5F97D20C000FFF7CFFE4B202E
:1004E000C00100F044F900F098FB10BDFFF78CFF4D
:1004F00000F0BCF800F0A4F97D26F6003046FFF7C6
:10050000BDFE4B20C00100F032F900F086FB0C214B
:1005100040A000F07BF90025424C00F0B2FB3046D1
:10052000FFF787FE052140A000F070F9A0780028B1
:10053000F3D03F4800F0CBFA0128EED100F04BF9A0
:1005400064213B4800F0AAFCA57000F04BF9E4E7F9
:1005500070B5384DA869C00507D5324C6078401C8D
:100560006070FFF7A3FE002020703348E86170BD83
:1005700030B4324CA0680007400F022811D16069E6
:10058000C0070ED0274B2A4A00259878642800D34C
:100590009D70216898781154401C98706069C0075C
:1005A000F3D130BC7047F0B5254E83B03068C0073A
:1005B0002BD01C49234C08787715401CC0B208701A
:1005C0004A780F2A02D9E26B3A43E26300250628F3
:1005D00019D964211C4800F061FC002300951A46DB
:1005E0001AA119480195FFF773FE174800F018FC8F
:1005F0000146154800F00AF91B480570E06BB84346
:10060000E063FFF757FE074845701F20306003B0D6
:10061000F0BD000073797374656D20726573657445
:10062000000000000400001068656C6C6F000000A2
:100630000800001000800050FF0F00000080004004
:1006400000000140C03F01506C0000102A52494E8A
:10065000473A25643A4349443A257325733A484F4B
:100660004F4B3A25642A00000700001070B42B4A53
:1006700010680126360430431060294BD02098635F
:100680002849D1248C63CC63274D2C604C6358617E
:10069000C862A86108624862086100211963986015
:1006A0001068B043106021480168012319430160BC
:1006B00001680222914301600168042291430160B4
:1006C0000168D2011143016001685400A143016037
:1006D000046891008C430460154804688C430460EE
:1006E0000468C9108C430460046814430460026801
:1006F0008024224302600F4A14681C43146042683D
:100700008A434260C2688A43C26002690A43026146
:1007100009490004086070BC7047000080800440F4
:1007200000400440404004408040044000800150AC
:10073000008000500080025000E100E0F8B5394E22
:10074000012000247060FFF73FFD374F0725F86B4D
:100750006408000501D580200443FFF735FD2846D5
:100760006D1EEDB20028F2D170602046F8BD70B564
:100770002E4B1A68012109040A431A602C4A546A54
:10078000E408E4005462546A01252C435462946ADC
:10079000E408E4009462946A2C4394621A688A43E1
:1007A0001A609D6119682A0311431960214C832145
:1007B000E1600146204800F075FB010A6160C0B2AB
:1007C00020600320E0600720A060606965601B492D
:1007D000A001086070BD17480321816041690021B4
:1007E00041607047134803218160416901214160E4
:1007F000704710484169C907FCD00068C0B2704713
:100800000C494A699206FCD508607047002908D057
:10081000084A53699B06FCD503781360401C491EA7
:10082000F7D1704700C00040C03F005080800440B6
:100830008040044000800040C0C62D0000E100E080
:1008400010B59021784800F029FB10BDF3B50C4697
:1008500081B0002501279021734800F01FFB724AE8
:10086000002016466036002C0ED901993379095CB8
:10087000D1543179642901D2491C00E00021401C87
:10088000C0B23171A042F0D33079002400287ED963
:1008900066480090012F06D0022F27D0032F36D0B4
:1008A000042F7AD093E06048005D802810D004289F
:1008B00015D055286DD011215DA0FFF7A7FF009935
:1008C0000020C8735F4930710870401E03B0F0BD4E
:1008D00014215DA0FFF79AFF2546022777E0132138
:1008E0005FA0FFF793FF2546032770E04E4832795B
:1008F00040194178A81C09188A4210D32846814221
:1009000003D9401CC0B28142FBD804275FE0464BAC
:10091000307959194C78AA1CA218904206D2142199
:1009200054A0FFF773FF002003B0F0BD28468242B9
:1009300003D9401CC0B28242FBD800202A181C18E0
:10094000D2186034401C9278C0B2A2710828F5D346
:100950004A780820082A0AD92A181C18D21892782E
:1009600060342272401C4A78C0B28242F4D8D0B2BD
:100970000099083888734548C26B012149028A43AF
:10098000C26300980121C1732E48017002E024E087
:1009900003E01CE00020307142E02348005D0128A4
:1009A00011D1214A00201319597800290FD91E4965
:1009B000221852180918927860318A71401C5A78AE
:1009C000C0B28242F3D81848005D022808D0641CE7
:1009D0003079E4B2A04200D95CE7002003B0F0BD5A
:1009E000114A002011194B78002B0AD92318151829
:1009F0009B189B7860352B74401C4B78C0B28342A7
:100A0000F4D80098214A8373D06B012149028843AE
:100A1000D0630020307100990120C8730949087023
:100A2000012003B0F0BD0000D00000105001001004
:100A30006D6573736167652069736E2774206673D3
:100A40006B000000070000106D657373616765201F
:100A5000434F4D504C45585F4D4F444500000000FA
:100A60006D6573736167652053494E474C455F4D13
:100A70004F4445006D657373616765206E6F742028
:100A8000636F6D706C65746500000000C03F0150BD
:100A900070B50025ED4300290FD045A100F0ABF95A
:100AA00000280AD0441D204600F098F9002805D0FF
:100AB000204600F093F9012800D0284670BD10B5FB
:100AC0003DA100F098F9002800D0012010BDF0B53C
:100AD0009BB00546642102A800F0E2F928780026C0
:100AE0002A280AD0284600F09BF9C1B22846FFF711
:100AF000ADFE00283EDD01203DE0681C2EA100F087
:100B00007AF9002850D02F460124384600F088F9A1
:100B100000062A4D000E10D025A1384600F06BF9D2
:100B200000280AD0471D384600F058F900280DD09B
:100B3000384600F053F9012800D02C460125204901
:100B40006D02012C04D0002C0ED010E03446F5E7E5
:100B5000C86BA843C863FFF7ADFB1A4806701A4874
:100B6000C16BA943C16302E0C86B2843C86301207D
:100B70001BB0F0BD0020002816D0642102A800F0B0
:100B80008FF912480090124B012212A1019602A87F
:100B9000FFF79EFB02A800F043F9014602A8FFF709
:100BA00035FE01201BB0F0BD00201BB0F0BD0000E1
:100BB000484F4F4B3A0000002A000000FFFFFFFFA4
:100BC000C03F005007000010C03F0150400100101E
:100BD000360100102A52494E473A25643A434944A7
:100BE0003A257325733A484F4F4B3A25642A000043
:100BF0002748816B40229143816326492020486227
:100C000025480221016101224261002141614261C6
:100C10004169C907FCD0826170471D49886B402239
:100C2000904388631B49202048621B4802210161D0
:100C3000012242610021416142614169C907FCD042
:100C40008261164801680122D203114301601548F0
:100C5000134941600168032211430160AA218160A8
:100C600055218160704710B50E4C2068000703D5F0
:100C700007210DA0FFF7CAFD2068042188432060EA
:100C800010BD0848AA21816055218160704700008D
:100C90000082044000800440C08004408080044002
:100CA0008038010000400040776474206972710050
:100CB000F8B504460E4600202DE0E168204688473E
:100CC00000282AD0252802D06268A16820E0E168C7
:100CD00020460027884705001FD02846413819289C
:100CE00002D80127FF0220353246204627602946D8
:100CF000FFF724FA002808D0012804D0F61DF608D2
:100D0000F6000836D9E7361DD7E762682846A1689D
:100D10009047206A401C2062CFE7206AF8BD70B57A
:100D200005460C46012A05D02868800600D5EA69E8
:100D3000002302E0012305E05B1C934202D2E05C49
:100D40000028F9D1A869E618C01AA861286AC01855
:100D500028622846C046C04604E06A682078A96830
:100D6000641C9047B442F8D32846C046C04670BDC4
:100D7000F7B5002675291068009914A511D0C04652
:100D8000C046002802DA404211A508E0009909682F
:100D90008A0701D50FA502E0490704D50EA5012653
:100DA00001E0C046C046009F0024243704E000F064
:100DB00037FA30313955641C0028F8D133462A46B9
:100DC0002146009800F06AF9FEBD00000000000016
:100DD0002D0000002B0000002000000070B506462A
:100DE00000F058F90468054630460A22002100F058
:100DF000DFF92C6070BD30B505460B462A461C78DD
:100E00001078521C5B1C002801D0A042F7D0002CA7
:100E100003D0002802D06D1CEFE7284630BD00004B
:100E200030B5441C03E00178401C00290DD0810737
:100E3000F9D10B4BDD0104C8D11A91432940FAD0F6
:100E4000001B0A0603D0C01E30BD001B30BD0A04C3
:100E500001D0801E30BD0902FCD0401E30BD000014
:100E60000101010101E004C0091F0429FBD28B0725
:100E700001D50280801CC90700D00270704700298C
:100E80000BD0C30702D00270401C491E022904D3B4
:100E9000830702D50280801C891EE3E70022EEE76B
:100EA0000022DFE7002203098B4273D3030A8B423F
:100EB00058D3030B8B423CD3030C8B4221D312E05B
:100EC00003460B437FD4002243088B4274D30309AB
:100ED0008B425FD3030A8B4244D3030B8B4228D34C
:100EE000030C8B420DD3FF22090212BA030C8B4272
:100EF00002D31212090265D0030B8B4219D300E012
:100F0000090AC30B8B4201D3CB03C01A5241830B96
:100F10008B4201D38B03C01A5241430B8B4201D346
:100F20004B03C01A5241030B8B4201D30B03C01A6F
:100F30005241C30A8B4201D3CB02C01A5241830AE9
:100F40008B4201D38B02C01A5241430A8B4201D318
:100F50004B02C01A5241030A8B4201D30B02C01A42
:100F60005241CDD2C3098B4201D3CB01C01A5241A9
:100F700083098B4201D38B01C01A524143098B4232
:100F800001D34B01C01A524103098B4201D30B011B
:100F9000C01A5241C3088B4201D3CB00C01A524140
:100FA00083088B4201D38B00C01A524143088B4205
:100FB00001D34B00C01A5241411A00D2014652419E
:100FC000104670475DE0CA0F00D04942031000D3BD
:100FD0004042534000229C4603098B422DD3030A12
:100FE0008B4212D3FC22890112BA030A8B420CD322
:100FF000890192118B4208D3890192118B4204D34B
:1010000089013AD0921100E08909C3098B4201D3CA
:10101000CB01C01A524183098B4201D38B01C01A04
:10102000524143098B4201D34B01C01A524103097B
:101030008B4201D30B01C01A5241C3088B4201D32A
:10104000CB00C01A524183088B4201D38B00C01AD7
:101050005241D9D243088B4201D34B00C01A5241AE
:10106000411A00D20146634652415B10104601D33B
:101070004042002B00D54942704763465B1000D3C5
:10108000404201B50020C046C04602BD70477047CF
:10109000704700000048704760010010FFB504462B
:1010A0000D4681B0243000902168880604D51022B6
:1010B000E0699143216000E001200027A84200DDA3
:1010C000471B0498A1697A191018081AA0612068B2
:1010D000C00602D42046C046C046002608E0039859
:1010E0006268A168805D9047206A401C761C20627F
:1010F00004988642F3DB2068C0060AD52046C04625
:10110000C04606E06268A16830209047206A401C13
:10111000206238467F1E0028F4DC07E000986268F1
:10112000A168405D9047206A401C206228466D1EE1
:101130000028F3DC2046C046C0462168022009068C
:1011400000D4012005B0F0BD01694A1C0261087895
:10115000704700B58FB002910021059105490193B8
:1011600079440391114604906846FFF7A1FD0FB042
:1011700000BD0000E5FFFFFF0A681070521C0A6006
:10118000704710B54369002B02D0C046C04601E04D
:10119000FFF7C5FD012010BD1268014624310A7019
:1011A00000224A700122ECE711680022D243E8E7EE
:1011B000F7B50F460026009C2578641C002D05D04D
:1011C00000F046F80068405DC007F5D12B2D02D035
:1011D0002D2D18D0641E3946029A204600F040F8A2
:1011E000002F04D03968A14201D1009939607105FE
:1011F000022400290BDA4042002803DDFFF74AFFF2
:101200000460A007FEBD012080020643E3E700283A
:10121000F8DAFFF73FFF04600048FEBDFFFFFF7FE5
:1012200001468008081A02091018020A1018020C58
:101230001018C008820012185200891A01E00A39F9
:10124000401C0A29FBD2704700487047600100101B
:1012500010B500F077F8001D10BD00BFA901000017
:10126000F7B5154682B00027029C2078641C0197D0
:10127000302802D0002D15D015E020780127641CFD
:10128000782804D0582802D0002D09D00BE0002D7A
:1012900001D0102D07D1207800271025641C02E012
:1012A000082500E00A250026009610E00099012795
:1012B0006943081829467143020C80B200908E18C9
:1012C0003804864201D3012001902078641C29460D
:1012D00000F03CF80028E9DA0398002804D0641EE6
:1012E000002F00D1029C04600198002806D0FFF76F
:1012F000D1FE02210160C81E05B0F0BD0099300486
:101300000843F9E77546FFF79FFFAE4605006946BB
:101310005346C008C000854618B020B5FEF744FF0C
:1013200060BC00274908B6460026C0C5C0C5C0C578
:10133000C0C5C0C5C0C5C0C5C0C5403D49008D467B
:101340007047000000487047800100103A2800D222
:101350003038202302469A43412A01D310463738B9
:101360000022D243884200D202461046704704460B
:10137000C046C0462046FEF706FF0000024670B594
:101380000A43920724D11B4DEE0104C808C9541B1F
:101390009443344017D0D0B2D9B2401A2106014349
:1013A00010D190B299B2401A210401430AD110021F
:1013B0001902000A090A401A2102014302D1100E43
:1013C000190E401A70BD9A42DFD010BA19BAF8E768
:1013D00002780B78401C491C002A09D09A4207D198
:1013E00002780B78401C491C002A01D09A42EFD0A9
:1013F000D01A70BD0101010101491820ABBEFEE702
:101400002600020010B500290AD00878002807D06D
:1014100005487844FFF7B2FF002801D0002010BD36
:101420000248784410BD00003E0000003600000075
:10143000601500000000001008000000040100001A
:101440006815000008000010B8030000200100002B
:101450001001000043000000F8FFFFFF0040404083
:101460004040404040404141414141404040404077
:101470004040404040404040404040404005020223
:1014800002020202020202020202020202202020E2
:10149000202020202020200202020202020290903E
:1014A000909090901010101010101010101010103C
:1014B0001010101010101010020202020202888890
:1014C000888888880808080808080808080808089C
:1014D0000808080808080808020202024000000084
:1014E00000000000000000000000000000000000FC
:1014F00000000000000000000000000000000000EC
:1015000000000000000000000000000000000000DB
:1015100000000000000000000000000000000000CB
:1015200000000000000000000000000000000000BB
:1015300000000000000000000000000000000000AB
:10154000000000000000000000000000000000009B
:10155000000000000000000000000000000000008B
:08156000006CDC020000000039
:04000005000000C136
:00000001FF
