:020000040000FA
:1000000038040010950100009D0100009F010000D0
:1000100000000000000000000000000000000000E0
:10002000000000000000000000000000A10100002E
:100030000000000000000000A3010000A501000076
:10004000A7010000A7010000A7010000A701000010
:10005000A7010000A7010000A7010000A701000000
:10006000A7010000A7010000A7010000A7010000F0
:10007000A7010000A7010000A7010000A7010000E0
:10008000A7010000B7050000A7010000A7010000BC
:10009000A7010000C9080000A7010000A701000097
:1000A000A7010000A7020000A7010000A7010000AF
:1000B000A7010000A7010000A70100008D070000B4
:1000C00000F002F800F056F80CA030C808382418E8
:1000D0002D18A246671EAB4654465D46AC4201D180
:1000E00000F048F87E460F3E0FCCB646012633425C
:1000F00000D0FB1AA246AB4633431847DC1400007D
:10010000FC140000103A02D378C878C1FAD852071C
:1001100001D330C830C101D504680C6070470000BD
:100120000023002400250026103A01D378C1FBD813
:10013000520700D330C100D50B60704710B5642959
:1001400002D100F0EDFE10BD732902D101F000F9DB
:1001500010BD002010BD1FB5C046C04601F0C6F955
:1001600004000020002101F021FA401C60601FBD46
:1001700010B510BD01F09AF91146FFF7ECFF00F041
:1001800037F801F0C8F903B4FFF7F2FF03BC01F040
:1001900007FA00000748804707480047FEE7FEE7E8
:1001A000FEE7FEE7FEE7FEE704480549034A054B84
:1001B0007047000009040000C10000003802001070
:1001C000380400103802001010B500F01DF900F0DE
:1001D00051FA00F0A7FB00F0A1FD7D20C00000F067
:1001E000CDF94B20C00100F014FB00F036F810BD33
:1001F00000F00AF900F03EFA00F094FB00F08EFDEA
:100200007D24E400204600F0B9F94B20C00100F045
:1002100000FB00F022F800F054F800F0CAFD204680
:1002200000F087F900F041FD00F0A7FDF3E70000C2
:100230002748816B402291438163264920204862F0
:100240002548022101610122426100214161426190
:100250004169C907FCD0826170471D49886B402203
:10026000904388631B49202048621B48022101619A
:10027000012242610021416142614169C907FCD00C
:100280008261164801680122D203114301601548BA
:10029000134941600168032211430160AA21816072
:1002A00055218160704710B50E4C2068000703D5BA
:1002B00007210DA000F0FCFA20680421884320608B
:1002C00010BD0848AA218160552181607047000057
:1002D0000082044000800440C080044080800440CC
:1002E000803801000040004077647420697271001A
:1002F000704770477047704700000000FFFFFFFF26
:1003000070B55A490020496AC905090F10292AD237
:100310007944097949188F4407090B0D0F111315FA
:1003200017191B1D1F21232551481CE051481AE0B5
:10033000514818E0514816E0514814E0514812E085
:10034000514810E051480EE051480CE051480AE095
:10035000514808E0514806E0514804E0514802E0A5
:10036000514800E05148414D696AC906890E891C0F
:1003700000F070FE4E4A116B4E4C8907890F11D068
:10038000012904D002292BD0032935D10DE01168B1
:100390008907890F06D0012904D0022920D003291A
:1003A0002AD12FE04448206026E011688907890F90
:1003B00006D001290AD0022914D003291CD121E03A
:1003C000A868C005800F05D03B4809E0A868C005B3
:1003D000800FF9D1A8683849C006C00E401C4843B8
:1003E000206009E0A968C905890FF9D1A968C90683
:1003F000C90E491C41432160916B206800F02AFE20
:10040000206070BD0020EBE7F0B42C4A906B2021F7
:1004100088439063154900230B62184600BF401CB7
:10042000C828FBD32248036001254560436045602E
:100430004468E407FCD023248C60946B8026B4438A
:100440009463CA68D207FCD0032101634563436308
:100450004563416BC907FCD085631A4818490160A0
:1004600045618561C561F0BC4AE700000080044039
:10047000801A060020A1070000350C00E0C810001B
:10048000C05C1500006A180040771B0080841E00C5
:10049000C0912100009F240040AC2700E0322900D9
:1004A00020402C00604D2F0000D4300040E133008C
:1004B0004080044000000010001BB7000082044090
:1004C0005F0001008080044058480168C907FCD0E3
:1004D0001F21016070475648016880221143016066
:1004E000704753490A6880231A430A604F49022221
:1004F0004A607D22D200CA603022504388610120C8
:10050000086003204861002048607047484801683F
:100510008022114301604548022141606421C1608D
:100520008900816101210160032141610021416055
:1005300070473F4A11688023194311603B490222EA
:100540004A60C8603B4888610120086004224A6113
:1005500048604868C007FCD17047344902224A60AD
:100560000022CA60302250438861012008600422C2
:100570004A6148604868C007FCD170472C490A6846
:100580008B151A430A602C4902224A60C860294828
:1005900088610120086003204861002048602749E5
:1005A00010040860704724490120486070472249C0
:1005B000002048607047F0B51F4C83B02068C0072A
:1005C00030D01F49204D08786715401CC0B2087014
:1005D0001C4909780F2907D9E96B3943E9631B499D
:1005E000CA6BE3141A43CA630026062818D964218B
:1005F000174800F02BFD002300961A4615A1144859
:10060000019600F019FC124800F0E2FC0146104887
:1006100000F04EF916480670E86BB843E863666070
:10062000084806701F20206003B0F0BD00C00040E5
:100630008080044080BB00000000014000E100E039
:100640000400001005000010C03F0150C03F0050E2
:100650006C0000102A52494E473A25643A434944F7
:100660003A257325733A484F4F4B3A25642A0000C8
:100670000700001070B44E4A10680126360430435B
:1006800010604C4BD02098634B49D1244C638C6351
:10069000CC634A4D2C605861C862A86108619860BB
:1006A00008624862E861D86388601068B0431060EF
:1006B00043480168490849000160016802229143EA
:1006C000016001680423994301600168D2019143EC
:1006D00001600168550029430160016894002143CD
:1006E00001600468D1008C430460364804680C4300
:1006F0000460016891430160016829430160016859
:1007000080242143016030490C6801252C430C6092
:100710002E490C689C430C600B681024A3430B60AB
:100720000B682024A3430B60416891434160C1687A
:100730009143C160016911430161254900040860CA
:1007400070BC70471E480168490849000160016893
:100750000222914301600168042291430160016813
:1007600092019143016070471548016801221143CD
:1007700001600168022211430160016804221143F3
:1007800001600168920111430160704710B50D4C82
:10079000A069C00508D50F490878401C0870FFF70C
:1007A00002FF0D49002008700C48E06110BD0000F8
:1007B00080800440004004404040044080400440A9
:1007C00000800150008000500080025000800350E3
:1007D00000E100E00500001004000010FF0F000021
:1007E000F8B5474E012000247060FFF76DFE454FBD
:1007F0000725F86B6408000501D580200443FFF746
:1008000063FE28466D1EEDB20028F2D170602046CE
:10081000F8BD70B53C4B1A68012109040A431A60FF
:100820003A4A546AE408E4005462546A01252C43AD
:100830005462946AE408E4009462946A2C439462DB
:100840001A688A431A609D6119682A031143196066
:100850002F4C8321E16001462E4800F0FBFB010A8A
:100860006160C0B220600320E0600720A060606982
:1008700065602949A001086070BD25480321816099
:10088000416900214160704721480321816041692D
:100890000121416070471E484169C907FCD00068CA
:1008A000C0B270471A494A699206FCD50860704781
:1008B000002908D0164A53699B06FCD503781360BB
:1008C000401C491EF7D1704730B4114CA068000796
:1008D000400F022811D16069C0070ED00F4B104A9B
:1008E00000251878642800D31D70216818781154E9
:1008F000401C18706069C007F3D130BC704700001D
:1009000000C00040C03F0050808004408040044050
:1009100000800040C0C62D0000E100E0060000108D
:100920000800001010B590217D4800F08FFB10BD2D
:10093000F3B50C4681B0002501279021784800F0DE
:1009400085FB774A002016466036002C0ED90199A7
:100950003379095CD1543179642901D2491C00E012
:100960000021401CC0B23171A042F0D33079002484
:1009700000287ED96B480090012F06D0022F27D087
:10098000032F36D0042F75D099E06548005D80288C
:1009900010D0042815D055286DD0112162A0FFF782
:1009A00087FF00990020C873644930710870401EA9
:1009B00003B0F0BD142162A0FFF77AFF254602279D
:1009C0007DE0132164A0FFF773FF2546032776E03F
:1009D0005348327940194178A81C09188A4210D32B
:1009E0002846814203D9401CC0B28142FBD804276B
:1009F00065E04B4B307959194C78AA1CA2189042EB
:100A000006D2142159A0FFF753FF002003B0F0BD18
:100A10002846824203D9401CC0B28242FBD8002043
:100A20002A181C18D2186034401C9278C0B2A271E7
:100A30000828F5D34A780820082A0AD92A181C1849
:100A4000D218927860342272401C4A78C0B2824236
:100A5000F4D8D0B20099083888734A48C26B012193
:100A600049028A43C2634849C86B0122D2029043BB
:100A700002E02AE009E022E0C86300990120C8737F
:100A80002E4908700020307147E02548005D01289C
:100A900011D1234A00201319597800290FD9204970
:100AA000221852180918927860318A71401C5A78BD
:100AB000C0B28242F3D81A48005D022808D0641CF4
:100AC0003079E4B2A04200D956E7002003B0F0BD6F
:100AD000134A002011194B78002B0AD92318151836
:100AE0009B189B7860352B74401C4B78C0B28342B6
:100AF000F4D8009883732348C16B012252029143BA
:100B0000C1632148C16B92009143C16300203071E1
:100B100000990120C87309490870012003B0F0BD95
:100B2000D0000010500100106D657373616765207F
:100B300069736E27742066736B0000000700001055
:100B40006D65737361676520434F4D504C45585F29
:100B50004D4F4445000000006D657373616765206B
:100B600053494E474C455F4D4F4445006D65737387
:100B7000616765206E6F7420636F6D706C6574655E
:100B800000000000C03F0150C03F005070B500257C
:100B9000ED4300290FD04FA100F005FA00280AD03C
:100BA000441D204600F0F2F9002805D0204600F050
:100BB000EDF9012800D0284670BD10B547A100F01E
:100BC000F2F9002800D0012010BDF0B59BB0054619
:100BD000642102A800F03CFA287800262A280AD0CE
:100BE000284600F0F5F9C1B22846FFF7A1FE00281B
:100BF0003EDD01203DE0681C38A100F0D4F900285A
:100C000050D02F460124384600F0E2F90006344D5A
:100C1000000E10D02FA1384600F0C5F900280AD0E8
:100C2000471D384600F0B2F900280DD0384600F0D4
:100C3000ADF9012800D02C4601252A496D02012C6E
:100C400004D0002C0ED010E03446F5E7C86BA84362
:100C5000C863FFF7ACFC244806702448C16BA94365
:100C6000C16302E0C86B2843C86301201BB0F0BD1C
:100C70000020002816D0642102A800F0E9F91C48E1
:100C800000901C4B01221CA1019602A800F0D4F890
:100C900002A800F09DF9014602A8FFF709FE012015
:100CA0001BB0F0BD00201BB0F0BD10B5194C207872
:100CB00000280ED01848FFF788FF012809D1FFF758
:100CC000DCFD6421144800F0C1F900202070FFF71A
:100CD000DBFD10BD484F4F4B3A0000002A000000DA
:100CE000FFFFFFFFC03F005007000010C03F015052
:100CF00040010010360100102A52494E473A25643F
:100D00003A4349443A257325733A484F4F4B3A25A5
:100D1000642A0000060000100800001010B56521CC
:100D2000164800F093F910BD70B5154DE86B00053D
:100D300022D5E86B0126B6023043E863FFF702FDD7
:100D4000E86B4407E86B640FC00501D50820044335
:100D5000FFF70AFDE86BB043E863FF2C0CD00749AE
:100D60000878642808D2002C06D00D2C04D2054A3D
:100D700084540878401C087070BDD5E760010010ED
:100D8000C03F015061010010294900204870C8701F
:100D90008870704726490020086048608860487065
:100DA000C8708870704722490870704720480078E2
:100DB000704770B41E4C002320781E4E00280ED0C1
:100DC00021464A79C9780125491CC9B2012814D0A5
:100DD000022810D1F06B400722D5012021E0F06BF2
:100DE000400701D5012000E0002060716370E370CE
:100DF000A3700120207070BC7047F06B400701D5D4
:100E0000012000E00020824207D0E1700529F2D9DC
:100E10006071E370657070BC7047E37070BC7047C0
:100E200000208242F9D0E1700529F1D870BC7047EA
:100E3000C8010010C03F03500FB41CB5074B06AAF1
:100E40007B4469460090059800F057FA00206946F7
:100E500000F066FA1CBC08BC04B01847DD040000B2
:100E6000F8B504460E4600202DE0E168204688478C
:100E700000282AD0252802D06268A16820E0E16815
:100E800020460027884705001FD0284641381928EA
:100E900002D80127FF022035324620462760294626
:100EA000FFF74CF9002808D0012804D0F61DF608F9
:100EB000F6000836D9E7361DD7E762682846A168EC
:100EC0009047206A401C2062CFE7206AF8BD70B5C9
:100ED00005460C46012A05D02868800600D5EA6937
:100EE000002302E0012305E05B1C934202D2E05C98
:100EF0000028F9D1A869E618C01AA861286AC018A4
:100F000028622846C046C04604E06A682078A9687E
:100F1000641C9047B442F8D32846C046C04670BD12
:100F2000F7B5002675291068009914A511D0C046A0
:100F3000C046002802DA404211A508E0009909687D
:100F40008A0701D50FA502E0490704D50EA50126A1
:100F500001E0C046C046009F0024243704E000F0B2
:100F600033FA30313955641C0028F8D133462A460B
:100F70002146009800F066F9FEBD00000000000068
:100F80002D0000002B0000002000000070B5064678
:100F900000F054F90468054630460A22002100F0AA
:100FA000DBF92C6070BD30B505460B462A461C782F
:100FB0001078521C5B1C002801D0A042F7D0002CF6
:100FC00003D0002802D06D1CEFE7284630BD00009A
:100FD00030B5441C03E00178401C00290DD0810786
:100FE000F9D10B4BDD0104C8D11A91432940FAD045
:100FF000001B0A0603D0C01E30BD001B30BD0A0412
:1010000001D0801E30BD0902FCD0401E30BD000062
:101010000101010101E004C0091F0429FBD28B0773
:1010200001D50280801CC90700D0027070470029DA
:101030000BD0C30702D00270401C491E022904D302
:10104000830702D50280801C891EE3E70022EEE7B9
:101050000022DFE7002203098B4273D3030A8B428D
:1010600058D3030B8B423CD3030C8B4221D312E0A9
:1010700003460B437FD4002243088B4274D30309F9
:101080008B425FD3030A8B4244D3030B8B4228D39A
:10109000030C8B420DD3FF22090212BA030C8B42C0
:1010A00002D31212090265D0030B8B4219D300E060
:1010B000090AC30B8B4201D3CB03C01A5241830BE5
:1010C0008B4201D38B03C01A5241430B8B4201D395
:1010D0004B03C01A5241030B8B4201D30B03C01ABE
:1010E0005241C30A8B4201D3CB02C01A5241830A38
:1010F0008B4201D38B02C01A5241430A8B4201D367
:101100004B02C01A5241030A8B4201D30B02C01A90
:101110005241CDD2C3098B4201D3CB01C01A5241F7
:1011200083098B4201D38B01C01A524143098B4280
:1011300001D34B01C01A524103098B4201D30B0169
:10114000C01A5241C3088B4201D3CB00C01A52418E
:1011500083088B4201D38B00C01A524143088B4253
:1011600001D34B00C01A5241411A00D201465241EC
:10117000104670475DE0CA0F00D04942031000D30B
:101180004042534000229C4603098B422DD3030A60
:101190008B4212D3FC22890112BA030A8B420CD370
:1011A000890192118B4208D3890192118B4204D399
:1011B00089013AD0921100E08909C3098B4201D319
:1011C000CB01C01A524183098B4201D38B01C01A53
:1011D000524143098B4201D34B01C01A52410309CA
:1011E0008B4201D30B01C01A5241C3088B4201D379
:1011F000CB00C01A524183088B4201D38B00C01A26
:101200005241D9D243088B4201D34B00C01A5241FC
:10121000411A00D20146634652415B10104601D389
:101220004042002B00D54942704763465B1000D313
:10123000404201B50020C046C04602BD004870478C
:10124000D4010010FFB504460D4681B02430009053
:101250002168880604D51022E0699143216000E0EE
:1012600001200027A84200DD471B0498A1697A19D4
:101270001018081AA0612068C00602D42046C04693
:10128000C046002608E003986268A168805D904728
:10129000206A401C761C206204988642F3DB20689A
:1012A000C0060AD52046C046C04606E06268A1686E
:1012B00030209047206A401C206238467F1E00285C
:1012C000F4DC07E000986268A168405D9047206AFE
:1012D000401C206228466D1E0028F3DC2046C046D4
:1012E000C04621680220090600D4012005B0F0BDE7
:1012F00001694A1C02610878704700B58FB00291FD
:101300000021059105490193794403911146049008
:101310006846FFF7A5FD0FB000BD0000E5FFFFFF29
:101320000A681070521C0A60704710B54369002BA0
:1013300002D0C046C04601E0FFF7C9FD012010BD44
:101340001268014624310A7000224A700122ECE73B
:1013500011680022D243E8E7F7B50F460026009C4B
:101360002578641C002D05D000F046F80068405D2B
:10137000C007F5D12B2D02D02D2D18D0641E394673
:10138000029A204600F040F8002F04D03968A142AC
:1013900001D1009939607105022400290BDA40421D
:1013A000002803DDFFF74AFF0460A007FEBD01200F
:1013B00080020643E3E70028F8DAFFF73FFF046006
:1013C0000048FEBDFFFFFF7F01468008081A0209A2
:1013D0001018020A1018020C1018C0088200121807
:1013E0005200891A01E00A39401C0A29FBD27047D1
:1013F00000487047D401001010B500F077F8001DC8
:1014000010BD00BFA9010000F7B5154682B0002746
:10141000029C2078641C0197302802D0002D15D042
:1014200015E020780127641C782804D0582802D0C1
:10143000002D09D00BE0002D01D0102D07D1207810
:1014400000271025641C02E0082500E00A2500267C
:10145000009610E000990127694308182946714356
:10146000020C80B200908E183804864201D301200D
:1014700001902078641C294600F03CF80028E9DA45
:101480000398002804D0641E002F00D1029C046041
:101490000198002806D0FFF7D1FE02210160C81E86
:1014A00005B0F0BD009930040843F9E77546FFF731
:1014B0009FFFAE46050069465346C008C0008546FA
:1014C00018B020B5FEF770FE60BC00274908B6468C
:1014D0000026C0C5C0C5C0C5C0C5C0C5C0C5C0C543
:1014E000C0C5403D49008D46704700000048704728
:1014F000F40100103A2800D23038202302469A43E3
:10150000412A01D3104637380022D243884200D204
:101510000246104670470446C046C0462046FEF7C5
:1015200032FE0000024670B50A43920724D11B4DDB
:10153000EE0104C808C9541B9443344017D0D0B2FC
:10154000D9B2401A2106014310D190B299B2401A83
:10155000210401430AD110021902000A090A401AA3
:101560002102014302D1100E190E401A70BD9A4299
:10157000DFD010BA19BAF8E702780B78401C491C82
:10158000002A09D09A4207D102780B78401C491CE6
:10159000002A01D09A42EFD0D01A70BD010101019A
:1015A00001491820ABBEFEE72600020010B5002955
:1015B0000AD00878002807D005487844FFF7B2FF22
:1015C000002801D0002010BD0248784410BD000062
:1015D0003E00000036000000081700000000001068
:1015E00008000000040100001017000008000010AF
:1015F0003004000020010000100100004300000042
:10160000F8FFFFFF00404040404040404040414123
:1016100041414140404040404040404040404040C7
:101620004040404040050202020202020202020261
:10163000020202020220202020202020202020025E
:1016400002020202020290909090909010101010EE
:10165000101010101010101010101010101010108A
:10166000020202020202888888888888080808081E
:1016700008080808080808080808080808080808EA
:101680000202020240000000000000000000000012
:10169000000000000000000000000000000000004A
:1016A000000000000000000000000000000000003A
:1016B000000000000000000000000000000000002A
:1016C000000000000000000000000000000000001A
:1016D000000000000000000000000000000000000A
:1016E00000000000000000000000000000000000FA
:1016F00000000000000000000000000000000000EA
:101700000000000000000000006CDC02000000008F
:04000005000000C136
:00000001FF
