:020000040000FA
:10000000C0030010950100009D0100009F01000049
:1000100000000000000000000000000000000000E0
:10002000000000000000000000000000A10100002E
:100030000000000000000000A3010000A501000076
:10004000A7010000A7010000A7010000A701000010
:10005000A7010000A7010000A7010000A701000000
:10006000A7010000A7010000A7010000A7010000F0
:10007000A7010000A7010000A7010000A7010000E0
:10008000A701000013060000A7010000A70100005F
:10009000A7010000FF050000A7010000A701000064
:1000A000A7010000A7010000A7010000A7010000B0
:1000B000A7010000A7010000A7010000D70500006C
:1000C00000F002F800F056F80CA030C808382418E8
:1000D0002D18A246671EAB4654465D46AC4201D180
:1000E00000F048F87E460F3E0FCCB646012633425C
:1000F00000D0FB1AA246AB463343184764130000F6
:1001000084130000103A02D378C878C1FAD8520795
:1001100001D330C830C101D504680C6070470000BD
:100120000023002400250026103A01D378C1FBD813
:10013000520700D330C100D50B60704710B5642959
:1001400002D100F02BFE10BD732902D101F042F85C
:1001500010BD002010BD1FB5C046C04601F008F913
:1001600004000020002101F065F9401C60601FBD03
:1001700010B510BD01F0DCF81146FFF7ECFF00F000
:10018000B3F901F00AF903B4FFF7F2FF03BC01F081
:1001900049F900000748804707480047FEE7FEE7A7
:1001A000FEE7FEE7FEE7FEE704480549034A054B84
:1001B0007047000009040000C1000000C0010010E9
:1001C000C0030010C00100103E480168C907FCD000
:1001D0001F21016070473C48016880221143016083
:1001E000704739490A6880231A430A603549022258
:1001F0004A607D22D200CA603022504388610120CB
:100200000860032048610020486070472E4801685C
:100210008022114301602B48022141606421C160AA
:100220008900816101210160032141610021416058
:10023000704725490A6880231A430A60214902222F
:100240004A607D22D200CA6030225043886101207A
:10025000086004224A6148604868C007FCD17047C2
:10026000184902224A600022CA6030225043886145
:100270000120086004224A6148604868C007FCD138
:10028000704711490A688B151A430A600F49022208
:100290004A607D22D200CA6030225043886101202A
:1002A000086003204861002048600949580208603E
:1002B00070470649012048607047044900204860A3
:1002C0007047000000C000408080044000000140F2
:1002D00000E100E00FB41CB5074B06AA7B44694659
:1002E0000090059800F04BFF0020694600F05AFF8F
:1002F0001CBC08BC04B01847C50E0000FFFFFFFF80
:1003000070B55A490020496AC905090F10292AD237
:100310007944097949188F4407090B0D0F111315FA
:1003200017191B1D1F21232551481CE051481AE0B5
:10033000514818E0514816E0514814E0514812E085
:10034000514810E051480EE051480CE051480AE095
:10035000514808E0514806E0514804E0514802E0A5
:10036000514800E05148414D696AC906890E891C0F
:1003700000F0AEFD4E4A116B4E4C8907890F11D02B
:10038000012904D002292BD0032935D10DE01168B1
:100390008907890F06D0012904D0022920D003291A
:1003A0002AD12FE04448206026E011688907890F90
:1003B00006D001290AD0022914D003291CD121E03A
:1003C000A868C005800F05D03B4809E0A868C005B3
:1003D000800FF9D1A8683849C006C00E401C4843B8
:1003E000206009E0A968C905890FF9D1A968C90683
:1003F000C90E491C41432160916B206800F068FDE3
:10040000206070BD0020EBE7F0B42C4A906B2021F7
:1004100088439063154900230B62184600BF401CB7
:10042000C828FBD32248036001254560436045602E
:100430004468E407FCD023248C60946B8026B4438A
:100440009463CA68D207FCD0032101634563436308
:100450004563416BC907FCD085631A4818490160A0
:1004600045618561C561F0BC4AE700000080044039
:10047000801A060020A1070000350C00E0C810001B
:10048000C05C1500006A180040771B0080841E00C5
:10049000C0912100009F240040AC2700E0322900D9
:1004A00020402C00604D2F0000D4300040E133008C
:1004B0004080044000000010001BB7000082044090
:1004C0005F0001008080044010B5FFF79DFF00F041
:1004D00013F900F01DFA7D20C000FFF7D2FE4B207B
:1004E000000100F0ACF910BD84B0FFF78DFF00F003
:1004F00003F900F00DFA7D20C000FFF7C2FE4B208B
:10050000000100F09CF96848012506466D0270362E
:100510006630664C002702906420FFF78AFE207840
:100520000028F9D0624801782A2909D000F08EFC11
:10053000C1B25F4800F0F2F900282EDD01202DE065
:10054000401C00F024FB0028E6D0594800F07EFC57
:10055000C1B2574800F004FBC0B2012802D0002805
:100560000DD010E05349C86BA843C863FFF7A5FE40
:10057000514852490770C86BA843C86303E04D480F
:10058000C16B2943C16300F08EF96421484800F033
:100590009BFC277000F08EF9BEE700200028BBD03E
:1005A000434800F053FC0146414800F097F96421AC
:1005B000434800F089FC01970096012241A1404880
:1005C000029BFFF787FE3E4800F040FC01463C4896
:1005D00000F084F9D7E770B5414DA869C0050BD587
:1005E000324CA078401CA070FFF763FE05213DA0AF
:1005F00000F074F9002060703C48E86170BD3C4830
:1006000081680907490F022902D14169C907FCD154
:100610007047F0B5374883B00068C0073ED0234C20
:1006200001276078254E401C6070A0787F0200256D
:100630000F2815D9F06B3843F0636421204800F08F
:1006400043FC0095002301221EA11D480195FFF7E0
:1006500041FE1B4800F0FAFB0146194800F03EF944
:100660006078052819D96421154800F02DFC002375
:1006700000951A4613A112480195FFF72BFE10486A
:1006800000F0E4FB01460E4800F028F90A48057026
:10069000F06BB843F063FFF710FEA57015481F21FB
:1006A000016003B0F0BD0000D00000100400001095
:1006B00008000010C03F005007000010C03F01506C
:1006C0006C0000102A52494E473A25643A43494487
:1006D0003A257325733A484F4F4B3A25642A000058
:1006E0000080005068656C6C6F000000FF0F000018
:1006F0000080004000000140F0B43C480068012543
:100700002D043A4928430860394AD020906339497A
:10071000D1238B63CB63384C23604B635061C86239
:10072000A0610862486208610021116390602F484F
:1007300000682E49A843086030480168012211432F
:100740000160016802239943016001680424A14308
:1007500001600168570239430160016892029143C8
:100760000160016852009143016025490D6895437D
:100770000D600E68D510AE430E600E683E430E60ED
:100780000E6880273E430E601E4E366801273E43AA
:100790001C4F3E604E6896434E60CE689643CE60D6
:1007A0000E6916430E614A68AA434A60CA68AA43A2
:1007B000CA600A692A430A614168A1434160C1686D
:1007C000A143C160016921430161416899434160CE
:1007D000C1681943C1600169194301610A48590799
:1007E0000160C1050160F0BC7047000080800440DA
:1007F00000400440404004408040044000800150DC
:10080000008000500080025000E100E0F8B5394E51
:10081000012000247060FFF7D7FC374F0725F86BE5
:100820006408000501D580200443FFF7CDFC28466D
:100830006D1EEDB20028F2D170602046F8BD70B593
:100840002E4B1A68012109040A431A602C4A546A83
:10085000E408E4005462546A01252C435462946A0B
:10086000E408E4009462946A2C4394621A688A4310
:100870001A609D6119682A0311431960214C832174
:10088000E1600146204800F023FB010A6160C0B22C
:1008900020600320E0600720A060606965601B495C
:1008A000A001086070BD17480321816041690021E3
:1008B0004160704713480321816041690121416013
:1008C000704710484169C907FCD00068C0B2704742
:1008D0000C494A699206FCD508607047002908D087
:1008E000084A53699B06FCD503781360401C491ED7
:1008F000F7D1704700C00040C03F005080800440E6
:100900008040044000800040C0C62D0000E100E0AF
:1009100010B59021784800F0D7FA10BDF3B50C4619
:1009200081B0002501279021734800F0CDFA724A6A
:10093000002016466036002C0ED901993379095CE7
:10094000D1543179642901D2491C00E00021401CB6
:10095000C0B23171A042F0D33079002400287ED992
:1009600066480090012F06D0022F27D0032F36D0E3
:10097000042F7AD093E06048005D802810D00428CE
:1009800015D055286DD011215DA0FFF7A7FF009964
:100990000020C8735F4930710870401E03B0F0BD7D
:1009A00014215DA0FFF79AFF2546022777E0132167
:1009B0005FA0FFF793FF2546032770E04E4832798A
:1009C00040194178A81C09188A4210D32846814250
:1009D00003D9401CC0B28142FBD804275FE0464BDC
:1009E000307959194C78AA1CA218904206D21421C9
:1009F00054A0FFF773FF002003B0F0BD28468242E9
:100A000003D9401CC0B28242FBD800202A181C180F
:100A1000D2186034401C9278C0B2A2710828F5D375
:100A20004A780820082A0AD92A181C18D21892785D
:100A300060342272401C4A78C0B28242F4D8D0B2EC
:100A40000099083888734548C26B012149028A43DE
:100A5000C26300980121C1732E48017002E024E0B6
:100A600003E01CE00020307142E02348005D0128D3
:100A700011D1214A00201319597800290FD91E4994
:100A8000221852180918927860318A71401C5A78DD
:100A9000C0B28242F3D81848005D022808D0641C16
:100AA0003079E4B2A04200D95CE7002003B0F0BD89
:100AB000114A002011194B78002B0AD92318151858
:100AC0009B189B7860352B74401C4B78C0B28342D6
:100AD000F4D80098214A8373D06B012149028843DE
:100AE000D0630020307100990120C8730949087053
:100AF000012003B0F0BD0000D00000105001001034
:100B00006D6573736167652069736E277420667302
:100B10006B000000070000106D657373616765204E
:100B2000434F4D504C45585F4D4F44450000000029
:100B30006D6573736167652053494E474C455F4D42
:100B40004F4445006D657373616765206E6F742057
:100B5000636F6D706C65746500000000C03F0150EC
:100B600070B50025ED4300290FD04BA100F059F9D5
:100B700000280AD0441D204600F046F9002805D080
:100B8000204600F041F9012800D0284670BD10B57C
:100B900043A100F046F9002800D0012010BDF0B5B7
:100BA0009BB00446642102A800F090F920783D4FE4
:100BB00000262A280AD0204600F048F9C1B2204673
:100BC000FFF7ACFE002845DD012044E0601C34A1A5
:100BD00000F027F900285CD0204600F037F9000625
:100BE000314D000E14D02CA1204600F01AF9002837
:100BF0000ED0401D009000F007F9002805D00098A5
:100C000000F002F9012802D002E0354600E001259B
:100C1000012226495202012D02D0002D0DD00FE0F5
:100C2000C86B1546A843C863FFF747FB204806700A
:100C30002048C16BA943C16302E0C86B1043C8637D
:100C4000FFF731FE26706670A670E6703E70FFF703
:100C500031FE1EE0002000281BD0204600F0F6F8F0
:100C600001462046FFF73AFE642102A800F02EF963
:100C700011480090114B012211A1019602A8FFF723
:100C800029FB02A800F0E2F8014602A8FFF726FEC1
:100C9000D6E700201BB0F0BD484F4F4B3A00000094
:100CA0002A00000004000010FFFFFFFFC03F0050BB
:100CB00007000010C03F0150400100103601001035
:100CC0002A52494E473A25643A4349443A25732506
:100CD000733A484F4F4B3A25642A0000F8B5044652
:100CE0000E4600202DE0E1682046884700282AD0E3
:100CF000252802D06268A16820E0E168204600272C
:100D0000884705001FD028464138192802D80127F6
:100D1000FF0220353246204627602946FFF70EFAAB
:100D2000002808D0012804D0F61DF608F600083681
:100D3000D9E7361DD7E762682846A1689047206A40
:100D4000401C2062CFE7206AF8BD70B505460C460E
:100D5000012A05D02868800600D5EA69002302E050
:100D6000012305E05B1C934202D2E05C0028F9D12C
:100D7000A869E618C01AA861286AC018286228461F
:100D8000C046C04604E06A682078A968641C9047A1
:100D9000B442F8D32846C046C04670BDF7B5002619
:100DA00075291068009914A511D0C046C0460028C6
:100DB00002DA404211A508E0009909688A0701D5C6
:100DC0000FA502E0490704D50EA5012601E0C046A3
:100DD000C046009F0024243704E000F037FA303189
:100DE0003955641C0028F8D133462A46214600981C
:100DF00000F06AF9FEBD0000000000002D000000B8
:100E00002B0000002000000070B5064600F058F9E5
:100E10000468054630460A22002100F0DFF92C6004
:100E200070BD30B505460B462A461C781078521C1A
:100E30005B1C002801D0A042F7D0002C03D0002872
:100E400002D06D1CEFE7284630BD000030B5441CD1
:100E500003E00178401C00290DD08107F9D10B4B2C
:100E6000DD0104C8D11A91432940FAD0001B0A06BB
:100E700003D0C01E30BD001B30BD0A0401D0801E4F
:100E800030BD0902FCD0401E30BD0000010101014F
:100E900001E004C0091F0429FBD28B0701D50280A1
:100EA000801CC90700D00270704700290BD0C3070F
:100EB00002D00270401C491E022904D3830702D5C8
:100EC0000280801C891EE3E70022EEE70022DFE7B4
:100ED000002203098B4273D3030A8B4258D3030BBE
:100EE0008B423CD3030C8B4221D312E003460B43CD
:100EF0007FD4002243088B4274D303098B425FD313
:100F0000030A8B4244D3030B8B4228D3030C8B423E
:100F10000DD3FF22090212BA030C8B4202D3121224
:100F2000090265D0030B8B4219D300E0090AC30BF9
:100F30008B4201D3CB03C01A5241830B8B4201D3A6
:100F40008B03C01A5241430B8B4201D34B03C01A8F
:100F50005241030B8B4201D30B03C01A5241C30A07
:100F60008B4201D3CB02C01A5241830A8B4201D378
:100F70008B02C01A5241430A8B4201D34B02C01A62
:100F80005241030A8B4201D30B02C01A5241CDD207
:100F9000C3098B4201D3CB01C01A524183098B4252
:100FA00001D38B01C01A524143098B4201D34B013B
:100FB000C01A524103098B4201D30B01C01A52419E
:100FC000C3088B4201D3CB00C01A524183088B4225
:100FD00001D38B00C01A524143088B4201D34B000E
:100FE000C01A5241411A00D2014652411046704780
:100FF0005DE0CA0F00D04942031000D34042534085
:1010000000229C4603098B422DD3030A8B4212D344
:10101000FC22890112BA030A8B420CD38901921176
:101020008B4208D3890192118B4204D389013AD0B3
:10103000921100E08909C3098B4201D3CB01C01A88
:10104000524183098B4201D38B01C01A524143099B
:101050008B4201D34B01C01A524103098B4201D389
:101060000B01C01A5241C3088B4201D3CB00C01AF6
:10107000524183088B4201D38B00C01A5241D9D20E
:1010800043088B4201D34B00C01A5241411A00D28F
:101090000146634652415B10104601D34042002B8B
:1010A00000D54942704763465B1000D3404201B50A
:1010B0000020C046C04602BD704770477047000020
:1010C0000048704760010010FFB504460D4681B02E
:1010D000243000902168880604D51022E0699143ED
:1010E000216000E001200027A84200DD471B049892
:1010F000A1697A191018081AA0612068C00602D4E4
:101100002046C046C046002608E003986268A168F1
:10111000805D9047206A401C761C206204988642BD
:10112000F3DB2068C0060AD52046C046C04606E06C
:101130006268A16830209047206A401C20623846CF
:101140007F1E0028F4DC07E000986268A168405D1B
:101150009047206A401C206228466D1E0028F3DC60
:101160002046C046C04621680220090600D401205E
:1011700005B0F0BD01694A1C02610878704700B5EE
:101180008FB00291002105910549019379440391A3
:10119000114604906846FFF7A1FD0FB000BD0000A6
:1011A000E5FFFFFF0A681070521C0A60704710B517
:1011B0004369002B02D0C046C04601E0FFF7C5FDE1
:1011C000012010BD1268014624310A7000224A70C5
:1011D0000122ECE711680022D243E8E7F7B50F4699
:1011E0000026009C2578641C002D05D000F046F8F0
:1011F0000068405DC007F5D12B2D02D02D2D18D0F1
:10120000641E3946029A204600F040F8002F04D0B0
:101210003968A14201D10099396071050224002981
:101220000BDA4042002803DDFFF74AFF0460A00705
:10123000FEBD012080020643E3E70028F8DAFFF74D
:101240003FFF04600048FEBDFFFFFF7F01468008AE
:10125000081A02091018020A1018020C1018C00807
:10126000820012185200891A01E00A39401C0A292A
:10127000FBD27047004870476001001010B500F0C5
:1012800077F8001D10BD00BFAD010000F7B5154691
:1012900082B00027029C2078641C0197302802D07D
:1012A000002D15D015E020780127641C782804D083
:1012B000582802D0002D09D00BE0002D01D0102DB0
:1012C00007D1207800271025641C02E0082500E0E3
:1012D0000A250026009610E00099012769430818A6
:1012E00029467143020C80B200908E183804864261
:1012F00001D3012001902078641C294600F03CF8BD
:101300000028E9DA0398002804D0641E002F00D1D9
:10131000029C04600198002806D0FFF7D1FE02214C
:101320000160C81E05B0F0BD009930040843F9E71C
:101330007546FFF79FFFAE46050069465346C00855
:10134000C000854618B020B5FEF72EFF60BC002710
:101350004908B6460026C0C5C0C5C0C5C0C5C0C581
:10136000C0C5C0C5C0C5403D49008D46704700009E
:1013700000487047800100103A2800D230382023FE
:1013800002469A43412A01D3104637380022D243FD
:10139000884200D20246104670470446C046C04606
:1013A0002046FEF7F0FE0000024670B50A439207A1
:1013B00024D11B4DEE0104C808C9541B944334408A
:1013C00017D0D0B2D9B2401A2106014310D190B241
:1013D00099B2401A210401430AD110021902000AED
:1013E000090A401A2102014302D1100E190E401AB7
:1013F00070BD9A42DFD010BA19BAF8E702780B78BC
:10140000401C491C002A09D09A4207D102780B7867
:10141000401C491C002A01D09A42EFD0D01A70BD5E
:101420000101010101491820ABBEFEE726000200C0
:101430007047000010B500290AD00878002807D0AE
:1014400005487844FFF7B0FF002801D0002010BD08
:101450000248784410BD00003E0000003600000045
:1014600090150000000000100800000004010000BA
:101470009815000008000010B803000020010000CB
:101480001001000043000000F8FFFFFF0040404053
:101490004040404040404141414141404040404047
:1014A00040404040404040404040404040050202F3
:1014B00002020202020202020202020202202020B2
:1014C000202020202020200202020202020290900E
:1014D000909090901010101010101010101010100C
:1014E0001010101010101010020202020202888860
:1014F000888888880808080808080808080808086C
:101500000808080808080808020202024000000053
:1015100000000000000000000000000000000000CB
:1015200000000000000000000000000000000000BB
:1015300000000000000000000000000000000000AB
:10154000000000000000000000000000000000009B
:10155000000000000000000000000000000000008B
:10156000000000000000000000000000000000007B
:10157000000000000000000000000000000000006B
:10158000000000000000000000000000000000005B
:08159000006CDC020000000009
:04000005000000C136
:00000001FF
